:080000000C9448000C94000070
:100008000C9400000C9400000C9400000C94000068
:100018000C9400000C9400000C9400000C94000058
:100028000C9400000C9400000C9400000C94000048
:100038000C9400000C9400000C9475000C940000C3
:100048000C9400000C9400000C9400000000433154
:10005800203D202564200043323D202564200000F7
:1000680001002D4E414E00494E46000080C02D4EE5
:10007800414E0000010005005400010060026800C4
:100088000200640274000000F894EE27ECBBF1E073
:10009800FBBFEBBFE5BF8DE0A2E0BB27ED938A95E0
:1000A800E9F780E098E0A0E6ED930197E9F7ECE73F
:1000B800F0E085919591009761F0A591B591059033
:1000C8001590BF01F00105900D920197E1F7FB0132
:1000D800F0CFEFE5EDBFE8E0EEBFC0E6D2E00C946C
:1000E800DC000A921A92FA926A937A938A939A9304
:1000F800AA93BA93EA93FA93EFB7EA9364970E94A4
:10010800780900E010E020E030E0E4B1F5B16627BE
:1001180077270E949A07DF01CB01ECE5FFEC6CE43E
:1001280073E40E947208EC8BFD8B6E8B7F8B5520DD
:10013800A9F40E941E0690F40F5F1F4FFE0134962B
:10014800FA93EA93E6E5F0E0FA93EA93F8010E945D
:100158002906E0E0EA93A0E00E943206E1E0E51516
:10016800A9F40E941E0690F42F5F3F4FFE013496BB
:10017800FA93EA93EFE5F0E0FA93EA93F9010E9423
:100188002906E1E0EA93A1E00E94320650940E9419
:100198007F096896E991EFBFF991E991B991A99121
:1001A8009991899179916991F99019900990189587
:1001B800EFEFE4BBE1BBEFEAE6B9A0E10E9414026D
:1001C8007894369A552011F4E0E401C0E3E4E7B9E5
:1001D800F8CFFFCF0E943806E0E0EA83EFE3EB8335
:1001E8001A930A93EB85FC85EF3FAFEFFA0739F4D2
:1001F8000E943F06AAE6B0E00E94F805ADC0EF3FB6
:10020800AFE7FA0739F40E943F06ABE6B0E00E9478
:10021800F805A2C0AC85AA2362F4E985FA856B8546
:100228007C850E942E070E9444060E944906EDE242
:10023800EC93A885A73010F0E6E0E8871885E12F51
:100248001150E03039F00E9450060E9455060E9475
:100258005C06F5CF0E9461060E94D4070E944406FE
:1002680010E0E0E0F0E060E87FE30E945C060E94B6
:1002780061060E94B70888F00E9450060E946A062C
:100288000E945C061F5F173238F00E943F06AFE6F7
:10029800B0E00E94F80560C0EACF103029F40E944F
:1002A8004906E0E3EC932BC0E12F1150E03039F11F
:1002B8000E9450060E9455060E947106DF01CB017C
:1002C8000E94E1050E945C060E9461060E94720875
:1002D8000E9461070E2F0E944906E02FE05DEC9313
:1002E800E02FF0E00E9450060E94E9080E949A0759
:1002F8000E9424080E9478060E947D06D5CFE885D2
:10030800E03031F10E944906EEE2EC93E885E150D5
:10031800E887EF5FE9F00E9478060E946A060E946B
:100328004406E985FA856B857C850E9461070E2F56
:100338000E944906E02FE05DEC93E02FF0E00E9478
:1003480078060E94E9080E949A070E947D06DECF7F
:10035800AE81BF81E0E0EC93198108812D96089564
:10036800AA93E5B3EF70AE2FE881E07FEA2BE5BBF7
:100378008BE18A95F1F7AA9A8BE18A95F1F7AA9809
:100388008BE18A95F1F778C0AA93A881E9DFE88123
:10039800E295E883A881E4DF88EC90E00197F1F723
:1003A8006BC0AA93E881F0E0EC59FD4FE081A98188
:1003B800AE0FEADF4980788022960895A2E00E9475
:1003C8008206ACE0E1DFA1E00E948206E0E07E2E3A
:1003D8004E2E0895AA93A881AA3011F0461448F029
:1003E800E0E0EA937394A72DDCDFA881AA3009F432
:1003F80043C04394A89AA881C7DFA8983DC0BA9380
:10040800AA931A93A981BA81ED91A983BA831E2F61
:10041800E03019F0A12FDEDFF5CF1881239608957B
:10042800AA93E4B3E06FE4BBA29AA09AA19AAA980F
:10043800A898A9986880E881E058E0936602E88166
:10044800E054E0936702A4E1B0E00E9424070E9410
:1004580088060E9488060E948806A0E281DF80E95B
:1004680091E00197F1F7A8E28FDFA4E08DDFA5E81E
:100478008BDFA6E089DFA2DF21960895BA93AA93BD
:100488001A930A93AA81BB8112960E944209309757
:1004980029F1AA81BB8114960E9442098F013097E5
:1004A80061F00230E0E01E0780F0F80131978F011B
:1004B800AA81BB811496ED93FC93AA81BB81129605
:1004C8000E9490063197AC81A083AA81BB810E94CB
:1004D8004209FF2312F00E94900606C0AA81BB8140
:1004E800EFEFFFEFED93FC931981088125960895AE
:1004F8000E943806E0E8EA83EFE3EB830E9478097C
:10050800EE85FF85EF3FAFEFFA0749F4E885F985F7
:10051800FA93EA93A6E7B0E00E94F805CBC0EF3F54
:10052800AFE7FA0749F4E885F985FA93EA93A7E76C
:10053800B0E00E94F805BEC0AB85A73010F0E6E039
:10054800EB871B85E12F1150E03029F00E949606B9
:100558000E949B06F7CFEC85FD856E857F850E94FE
:10056800720931F430E00E9496060E949B0637C05B
:100578003B850E94A00609F008F410C00E94960668
:100588000E949B060E94A00640F00E94AB060E94B3
:1005980055060E94B0063F5FF5CF0FC00E94A00627
:1005A80040F40E94AB060E946A060E94B0063150D1
:1005B800F5CF0E9496060E949B06EC85FD856E8508
:1005C8007F850E9471060E94B0060E94A00638F03E
:1005D8000E94AB060E9455060E94B0063F5F10E0DD
:1005E800EB85E117D8F1AC81BD818E819F810E9496
:1005F80055060E947106DF01CB010E94E1050E94A9
:100608009B06EC81FD816E817F810E94AB060E9472
:1006180072080E9461070E2F0E94B506E02FE05D68
:10062800EC93E02FFF27662777270E949A07AC8173
:10063800BD818E819F810E9424080E94AB060E9482
:1006480065090E94CD070E94B006E12F1F5FE030C8
:1006580039F60E94B506EEE2EC93C2CF0E94BC06C2
:100668003197AA85A08330302CF43195A885B985B7
:10067800EDE203C0A885B985EBE2EC930E94BC06C5
:100688000E94BC063197BF01A32FEAE00E94FC0834
:10069800E05DDB01EC930E94BC063197BF01A32FFC
:1006A800EAE00E942609E05DDB01EC93A885B985A4
:1006B800E0E0EC930E947F0960960895BA93AA93AC
:1006C800EF9761970E94760910E0FE01E85AFF4F04
:1006D8000190F081E02DE887F987FE01EA5AFF4F83
:1006E8000190F081E02DEE83FF83AE81BF81E0E0D1
:1006F800F0E0ED93FC93DE01A45ABF4F0E949006F0
:100708003197E4912E2FE03009F4E9C1E12FE03070
:1007180039F4253211F411E002C00E94C206DEC18C
:10072800E130C1F4253219F40E94C206D6C112E0A4
:10073800E0E0ED8B00E02D3211F401E0CFC12B3267
:1007480019F4EBE2ED8BCAC1203219F4E0E2ED8B2B
:10075800C5C102C0E23039F450E013E0203311F48F
:100768000068BCC102C0E33091F4203310F02A3392
:1007780008F007C0AAE05A9F502DE22FE0535E0F01
:10078800ADC140E02E3211F414E0A8C10FC0E4302E
:1007980099F4203310F02A3308F008C00062AAE068
:1007A8004A9F402DE22FE0534E0F98C12C3619F482
:1007B800026015E093C103C0E53009F08FC1E22F54
:1007C800E33659F40E94C9060E94D0060E94C90661
:1007D800A481AA930E94D70680C1E53411F0E536BA
:1007E80009F403C0E63609F048C0FE017696EE87A4
:1007F800FF870E94DD060E9446090E94E4060E94C7
:10080800E906AD85AA2332F0AD89AB3259F0A032A2
:1008180081F017C00E94EB060E942E070E94E40692
:10082800EDE2ED8B07FF05C0ED89EA930E94D7063C
:1008380008C0EE85FF853196EE87FF873197AD8931
:10084800A08305FF46E0263651F40E94EB060E947D
:100858005B094A93AB89BC890E94EE0009C00E94DB
:10086800EB060E945B094A932A93AC89BD8940DE56
:10087800FE0176960E94F0061EC0E33739F40E9406
:10088800E9060E94F8060E94F0060EC0E037C1F49F
:100898000E94E9060E94F806EE87FF87AE85BF85AD
:1008A8000E9411061E2F08600F77403011F0411783
:1008B80008F001C0142F40E0E0E0EC8B30E06DC0A0
:1008C800E43611F0E93611F4046002C0E537A1F40A
:1008D800EAE0EC8B01FF08C0E0E0FAEC6AE97BE3B0
:1008E8000E94FD061AE022C0E0E1F7E260E070E055
:1008F8000E94FD0615E01AC0E83511F4086003C02F
:10090800E83709F0EAC0E0E1EC8B01FF08C0E0E05D
:10091800F0E060E070E10E94FD0618E007C0E0E04A
:10092800F0E160E070E00E94FD0614E0403011F054
:100938000F7701C041E001FF08C00E94E9060E944C
:10094800DD0614960E9446090FC002FF07C00E94E8
:10095800E9060E94F8060E94E90806C00E94E90616
:100968000E94F80666277727EA87FB876C877D87CA
:1009780002FF12C0AD85AA2342F40E94EB060E9432
:10098800DB080E94E406EDE2ED8BED89E03019F01A
:100998001F5F4F5F01C00B7F342F00FD14C0151778
:1009A80010F4351708F00FC007FF08C002FF04C095
:1009B8000B7F2D89115001C020E301C020E20E9465
:1009C800C2065150ECCF141790F4006102FF06C024
:1009D8000E94020709F0515011504150E0E3EA9398
:1009E8000E94D706503009F051504150ECCF312FBA
:1009F800EC89E030B9F43030A1F003FF06C0EE8591
:100A0800FF852591EE87FF8705C0AE85BF852D91AF
:100A1800AE87BF870E94C206503009F0515031504E
:100A2800EACF51C00E9414070E9401092E2F2A30D4
:100A380030F003FF02C0295C01C0295A01C0205DC3
:100A480004FD21C0213360F4A889B9898A899B896A
:100A5800A130E0E0BE07E0E08E07E0E09E0709F481
:100A68000BC0431740F4531710F000FF01C010C02B
:100A780020E207FF08C020E3006102FF04C00E94D3
:100A8800020709F051500E94C206503009F0515037
:100A980031500E9414070E9432090E94E406EC8932
:100AA800A889B9898A899B89FF27662777270E94A1
:100AB80001090E94FD06E889F9896A897B890E94F3
:100AC800720909F0AFCF00FF08C0503031F0515023
:100AD800E0E2EA930E94D706F8CF10E00CCEAE8190
:100AE800BF810E9442090E947D09EF966F96089582
:100AF800FF92F82E26970E9478090E941D073097CA
:100B080019F4EFEFFFEF23C0DE0116960E94D70815
:100B18008D010E941D07EE83FF83E0E0E887E987E7
:100B2800DE011A960E94D7080E944209FA93EA93B6
:100B38001A930A93E2E4F2E0FA93EA93DE011A9632
:100B4800BDDD9F01AE81BF81E0E0EC93F9010E9419
:100B58007F092A96FF9008950E9460097B816A8127
:100B6800F981E88177FB770F67FD7160972F9E57B2
:100B780081F078F0983190F4AA27BB278827089449
:100B88008795B795A7959A95D1F7EA23FB2368230C
:100B980005C0E8947727EE27FF2766276F777695B5
:100BA80008F4606877F9A991B99189919991EA1740
:100BB800FB076807790797FB08950E9460090E9460
:100BC80051090E94B0050E94560919F40E944C0967
:100BD80009C0E6F70E944C09A0E0B0E080E89FE376
:100BE8000E94CD0724960895BA93AA93E991F991A2
:100BF800A991B991CD0105900D920020E1F7FC0172
:100C08000895BA93AA93A991B991EE27FF276D91F8
:100C1800662311F03196FBCF0895BA93AA93AA27B9
:100C2800BB27E991F9910590002011F01196FBCFAF
:100C3800FD010895AC89BD898E899F89E4EAF0E7B2
:100C48006DE570E40E94B70808950E94E9080E94C3
:100C58005B0984E00E947C05289608950E94D501CE
:100C6800DE0114960C940302BA93AA932497E0E049
:100C7800E883E9830895EE81FF81FA93EA93089562
:100C8800E987FA876B877C870895AE81BF811196C3
:100C9800AE83BF8311970895AA81BB818C819D8102
:100CA8000895EDECFCEC6CEC7DE30E9424080895BB
:100CB800EA83FB836C837D830895EA81FB816C81E1
:100CC8007D81A985BA858B859C850895E0E0F0E053
:100CD80060E271E40E9424080895A0E0B0E080E09A
:100CE8009FE30E94D4070895A985BA858B859C85C2
:100CF80008950E9465090E94CD07C2CF0E94C801CD
:100D0800A3E0B0E00C942407A0E30E94B40180E9BA
:100D180091E00197F1F70895ED91FD913196FE93D9
:100D2800EE930895AC81BD818E819F81CFCFEC83F6
:100D3800FD836E837F830895EC81FD816E817F81C1
:100D4800AC85BD858E859F850E94B7080895AC85C2
:100D5800BD858E859F850895EC87FD876E877F8783
:100D68000895A885B9851196A887B9871197089518
:100D7800E885F9853196E887F98708952A93AF8140
:100D8800B885E985FA8509950895FE01E65AFF4F69
:100D98000190F081E02D08953497DE01A65ABF4FE7
:100DA800ED93FC930895AF81B885E985FA85099597
:100DB8000895DE01A65ABF4F0D90BC91A02D08954D
:100DC800EA87FB876C877D870895DFDFE5CFEA85B3
:100DD800FB856C857D850895EE87FF87AE85BF8589
:100DE8000E9405061E2F0895E4DF14960E9442090A
:100DF8000895E88BF98B6A8B7B8B08950B7FED89BF
:100E0800EA93DE01A95ABF4F0D90BC91A02DFE01B7
:100E1800E75AFF4F0190F081E02D09955030089571
:100E2800E889F9896A897B89AA85BB858C859D852E
:100E38000895DE011C960E94D7080E944209089571
:100E4800109639F080EA9FE00197F1F7A89511977D
:100E5800C9F7089530976040704009F070580895B8
:100E6800552342F4503811F4E0FF04C03196691F4D
:100E7800791F6BF050E8572711F45F93CFC05F3F9D
:100E880031F0660F000C57956795752F08955F939D
:100E980000200AF0CFC0C8C050E8192E1522880FCC
:100EA800991F9527550F879550E8072E0522660F3D
:100EB800771F7527550F67950895689401C0E894C2
:100EC8005F93F2DF703818F07F3F08F4A7C056E14F
:100ED800571BAAF4519558300EF4593030F0EFEF03
:100EE800FFEF6FEF7FE777F91AC077275523B9F03F
:100EF800EE0FFF1F661F771F5A95D1F710C077278F
:100F0800583028F0EF2FF62F672F5850F9CF552378
:100F180031F076956795F795E7955A95D1F70020C2
:100F28000AF445D15F910895689401C0E894309718
:100F380060407040B1F0002426F0772312F400944A
:100F480036D1172E7EE1112032F07A95EE0FFF1F71
:100F5800661F111CF9CFEF2FF62F612D5F938ADFE3
:100F68005F9108954F93AF01FD01DA01AB01BC0118
:100F7800CA01402D012C142E4F910895EA0FFB1F32
:100F8800681F0895E095F0956095EF5FFF4F6F4FEC
:100F980008955F9381DF903871F150E8152604C0F9
:100FA8005F937ADF903839F1703821F1572F591B48
:100FB8002BF112F4D7DFFACF583118F0AA27BB2744
:100FC8008827583028F0AB2FB82F88275850F9CFEA
:100FD800552329F08695B795A7955A95D9F7502D99
:100FE800512572F0CBDF38F46795F795E79573953F
:100FF80013F420C0B7DF3EDF5F910895D8F7FBCF29
:10100800EA1BFB0B680B51F010F40094BBDF66235E
:1010180092F3EE0FFF1F661F7A95CBF7EE27FF2797
:10102800662777275F910895EFEFFFEF6FE77FEF70
:101038005F910895EFEFFFEF6FE77FE75F91089506
:101048005F932ADF703851F3903841F301240894F4
:10105800791F23F41CF300203AF3ECCF0F921F936F
:101068002F933F934F93112722279927689FA00119
:101078008F9F302D410D591F6B9F300D411D591FFA
:101088008E9F27D0BF9F25D06A9F23D0BE9F1DD09B
:10109800AF9F1BD0AE9F110D291F391F491F591F24
:1010A800E32FF42F652F522F4F913F912F911F91CE
:1010B8000F9066232AF0550FEE1FFF1F661F02C010
:1010C80073954BF2CDDE5F910895100D211D391FE8
:1010D80002C0200D311D491F591F08955F93DCDEA2
:1010E800703821F411200AF49FCFA4CF903809F466
:1010F80095CF01240894970B1BF4D4F30020F3CF69
:10110800792F1F932F933F934F9311241127222751
:1011180033274427552790E2AE17BF0786074107B4
:1011280030F0AE1BBF0B860B410B089401C08894AE
:10113800551F221F331F111CAA1FBB1F881F441FC6
:101148009A9551F7F901612D4F913F912F911F9178
:10115800662332F0550FEE1FFF1F661F7A9543F284
:101168007FDE5F91089599239AF0772342F09717CD
:1011780048F029F4AE17BF07860720F031F098949D
:1011880088940895989408940895189488940895D4
:101198007723C2F7971798F3A9F7EA17FB076807A9
:1011A80088F399F3ECCF0024AF0DB01D0895F095A6
:1011B80060957095E195FF4F6F4F7F4F0895FE2F13
:1011C800FF0FFF0B6F2F7F2F08956F2F660F660B92
:1011D800762F0895002498E0AA0F001C0E1A10F428
:1011E8000E0E01C0A1609A95B9F7EA2FA02D0895B7
:1011F80039D0F0DF0EF4E19508953F934F935F9354
:10120800002411244427552730E2AA0FBB1F881F4A
:10121800991F001C111C441F551F0E1A1F0A460B4C
:10122800570B28F40E0E1F1E461F571F01C0A16042
:101238003A9559F7FD01BC01D001CA015F914F9160
:101248003F910895E894A7FF02C0A1956894E7FD2F
:10125800E195C0DFEA2F0EF4E1950895CEDFFD0198
:10126800BC010895E894E7FF02C0E1956894A7FFE0
:1012780004C0A19500F8039400FA0895ED91FC913B
:1012880011970895ED91FD916D917C9113970895B3
:10129800E881F9816A817B810895A881B9818A8171
:1012A8009B810895E883F9836A837B8308957A9301
:1012B8006A93FA93EA9308959A938A93BA93AA93AE
:1012C8000895182E862F612D192E972F712D1B2EFC
:1012D800BF2FF12D1A2EAE2FE12D089530976040C3
:1012E800704008955A934A933A932A931A930A930B
:1012F80008955D814C813B812A8119810881089577
:00000001FF
